{
  "contractName": "SignedDataVersion01",
  "abi": [
    {
      "constant": false,
      "inputs": [],
      "name": "renounceOwnership",
      "outputs": [],
      "payable": false,
      "stateMutability": "nonpayable",
      "type": "function",
      "signature": "0x715018a6"
    },
    {
      "constant": true,
      "inputs": [],
      "name": "owner",
      "outputs": [
        {
          "name": "",
          "type": "address"
        }
      ],
      "payable": false,
      "stateMutability": "view",
      "type": "function",
      "signature": "0x8da5cb5b"
    },
    {
      "constant": true,
      "inputs": [],
      "name": "isOwner",
      "outputs": [
        {
          "name": "",
          "type": "bool"
        }
      ],
      "payable": false,
      "stateMutability": "view",
      "type": "function",
      "signature": "0x8f32d59b"
    },
    {
      "constant": false,
      "inputs": [
        {
          "name": "newOwner",
          "type": "address"
        }
      ],
      "name": "transferOwnership",
      "outputs": [],
      "payable": false,
      "stateMutability": "nonpayable",
      "type": "function",
      "signature": "0xf2fde38b"
    },
    {
      "inputs": [],
      "payable": false,
      "stateMutability": "nonpayable",
      "type": "constructor",
      "signature": "constructor"
    },
    {
      "payable": true,
      "stateMutability": "payable",
      "type": "fallback"
    },
    {
      "anonymous": false,
      "inputs": [
        {
          "indexed": false,
          "name": "App",
          "type": "uint256"
        },
        {
          "indexed": false,
          "name": "Name",
          "type": "uint256"
        },
        {
          "indexed": false,
          "name": "Value",
          "type": "bytes32"
        },
        {
          "indexed": false,
          "name": "By",
          "type": "address"
        }
      ],
      "name": "DataChange",
      "type": "event",
      "signature": "0xc9bbb9d40eb6b265e9e7f7c2c367f761494e11148c80a704ed4a44184fe4313a"
    },
    {
      "anonymous": false,
      "inputs": [
        {
          "indexed": false,
          "name": "sender",
          "type": "address"
        },
        {
          "indexed": false,
          "name": "value",
          "type": "uint256"
        },
        {
          "indexed": false,
          "name": "application",
          "type": "uint256"
        },
        {
          "indexed": false,
          "name": "payFor",
          "type": "uint256"
        }
      ],
      "name": "ReceivedFunds",
      "type": "event",
      "signature": "0x5f74095c3cf9cd2b4407992767113d77fc65cb2423a83ecc71977f3ace6b34f4"
    },
    {
      "anonymous": false,
      "inputs": [
        {
          "indexed": false,
          "name": "to",
          "type": "address"
        },
        {
          "indexed": false,
          "name": "amount",
          "type": "uint256"
        }
      ],
      "name": "Withdrawn",
      "type": "event",
      "signature": "0x7084f5476618d8e60b11ef0d7d3f06914655adb8793e28ff7f018d4c76d505d5"
    },
    {
      "anonymous": false,
      "inputs": [
        {
          "indexed": true,
          "name": "previousOwner",
          "type": "address"
        },
        {
          "indexed": true,
          "name": "newOwner",
          "type": "address"
        }
      ],
      "name": "OwnershipTransferred",
      "type": "event",
      "signature": "0x8be0079c531659141344cd1fd0a4f28419497f9722a3daafe3b4186f6b6457e0"
    },
    {
      "constant": false,
      "inputs": [],
      "name": "init",
      "outputs": [],
      "payable": false,
      "stateMutability": "nonpayable",
      "type": "function",
      "signature": "0xe1c7392a"
    },
    {
      "constant": false,
      "inputs": [
        {
          "name": "_minPayment",
          "type": "uint256"
        }
      ],
      "name": "setMinPayment",
      "outputs": [],
      "payable": false,
      "stateMutability": "nonpayable",
      "type": "function",
      "signature": "0x6d427fa3"
    },
    {
      "constant": true,
      "inputs": [],
      "name": "getMinPayment",
      "outputs": [
        {
          "name": "",
          "type": "uint256"
        }
      ],
      "payable": false,
      "stateMutability": "view",
      "type": "function",
      "signature": "0x77a890cd"
    },
    {
      "constant": false,
      "inputs": [
        {
          "name": "_app",
          "type": "uint256"
        },
        {
          "name": "_name",
          "type": "uint256"
        },
        {
          "name": "_data",
          "type": "bytes32"
        }
      ],
      "name": "setData",
      "outputs": [],
      "payable": true,
      "stateMutability": "payable",
      "type": "function",
      "signature": "0x8c58ae24"
    },
    {
      "constant": true,
      "inputs": [
        {
          "name": "_app",
          "type": "uint256"
        },
        {
          "name": "_name",
          "type": "uint256"
        }
      ],
      "name": "getData",
      "outputs": [
        {
          "name": "",
          "type": "bytes32"
        }
      ],
      "payable": false,
      "stateMutability": "view",
      "type": "function",
      "signature": "0x4e4fe306"
    },
    {
      "constant": false,
      "inputs": [
        {
          "name": "application",
          "type": "uint256"
        },
        {
          "name": "payFor",
          "type": "uint256"
        }
      ],
      "name": "genReceivedFunds",
      "outputs": [],
      "payable": true,
      "stateMutability": "payable",
      "type": "function",
      "signature": "0xbe2b1636"
    },
    {
      "constant": false,
      "inputs": [
        {
          "name": "amount",
          "type": "uint256"
        }
      ],
      "name": "withdraw",
      "outputs": [
        {
          "name": "",
          "type": "bool"
        }
      ],
      "payable": false,
      "stateMutability": "nonpayable",
      "type": "function",
      "signature": "0x2e1a7d4d"
    },
    {
      "constant": true,
      "inputs": [],
      "name": "getBalanceContract",
      "outputs": [
        {
          "name": "",
          "type": "uint256"
        }
      ],
      "payable": false,
      "stateMutability": "view",
      "type": "function",
      "signature": "0x66bd78fd"
    },
    {
      "constant": false,
      "inputs": [],
      "name": "kill",
      "outputs": [],
      "payable": false,
      "stateMutability": "nonpayable",
      "type": "function",
      "signature": "0x41c0e1b5"
    }
  ],
  "bytecode": "0x608060405234801561001057600080fd5b50336000806101000a81548173ffffffffffffffffffffffffffffffffffffffff021916908373ffffffffffffffffffffffffffffffffffffffff1602179055506000809054906101000a900473ffffffffffffffffffffffffffffffffffffffff1673ffffffffffffffffffffffffffffffffffffffff16600073ffffffffffffffffffffffffffffffffffffffff167f8be0079c531659141344cd1fd0a4f28419497f9722a3daafe3b4186f6b6457e060405160405180910390a333600160006101000a81548173ffffffffffffffffffffffffffffffffffffffff021916908373ffffffffffffffffffffffffffffffffffffffff1602179055506103e8600281905550610cad806101266000396000f3fe6080604052600436106100c5576000357c0100000000000000000000000000000000000000000000000000000000900463ffffffff1680632e1a7d4d1461014457806341c0e1b5146101975780634e4fe306146101ae57806366bd78fd146102075780636d427fa314610232578063715018a61461026d57806377a890cd146102845780638c58ae24146102af5780638da5cb5b146102f15780638f32d59b14610348578063be2b163614610377578063e1c7392a146103af578063f2fde38b146103c6575b7f5f74095c3cf9cd2b4407992767113d77fc65cb2423a83ecc71977f3ace6b34f4333460006001604051808573ffffffffffffffffffffffffffffffffffffffff1673ffffffffffffffffffffffffffffffffffffffff16815260200184815260200183815260200182815260200194505050505060405180910390a1005b34801561015057600080fd5b5061017d6004803603602081101561016757600080fd5b8101908080359060200190929190505050610417565b604051808215151515815260200191505060405180910390f35b3480156101a357600080fd5b506101ac61052b565b005b3480156101ba57600080fd5b506101f1600480360360408110156101d157600080fd5b81019080803590602001909291908035906020019092919050505061061d565b6040518082815260200191505060405180910390f35b34801561021357600080fd5b5061021c61064c565b6040518082815260200191505060405180910390f35b34801561023e57600080fd5b5061026b6004803603602081101561025557600080fd5b810190808035906020019092919050505061067e565b005b34801561027957600080fd5b5061028261069b565b005b34801561029057600080fd5b5061029961076d565b6040518082815260200191505060405180910390f35b6102ef600480360360608110156102c557600080fd5b8101908080359060200190929190803590602001909291908035906020019092919050505061078a565b005b3480156102fd57600080fd5b50610306610a5e565b604051808273ffffffffffffffffffffffffffffffffffffffff1673ffffffffffffffffffffffffffffffffffffffff16815260200191505060405180910390f35b34801561035457600080fd5b5061035d610a87565b604051808215151515815260200191505060405180910390f35b6103ad6004803603604081101561038d57600080fd5b810190808035906020019092919080359060200190929190505050610ade565b005b3480156103bb57600080fd5b506103c4610b5d565b005b3480156103d257600080fd5b50610415600480360360208110156103e957600080fd5b81019080803573ffffffffffffffffffffffffffffffffffffffff169060200190929190505050610b68565b005b6000610421610a87565b151561042c57600080fd5b600160009054906101000a900473ffffffffffffffffffffffffffffffffffffffff1673ffffffffffffffffffffffffffffffffffffffff166108fc839081150290604051600060405180830381858888f19350505050158015610494573d6000803e3d6000fd5b507f7084f5476618d8e60b11ef0d7d3f06914655adb8793e28ff7f018d4c76d505d5600160009054906101000a900473ffffffffffffffffffffffffffffffffffffffff1683604051808373ffffffffffffffffffffffffffffffffffffffff1673ffffffffffffffffffffffffffffffffffffffff1681526020018281526020019250505060405180910390a160019050919050565b610533610a87565b151561053e57600080fd5b7f7084f5476618d8e60b11ef0d7d3f06914655adb8793e28ff7f018d4c76d505d5600160009054906101000a900473ffffffffffffffffffffffffffffffffffffffff163073ffffffffffffffffffffffffffffffffffffffff1631604051808373ffffffffffffffffffffffffffffffffffffffff1673ffffffffffffffffffffffffffffffffffffffff1681526020018281526020019250505060405180910390a1600160009054906101000a900473ffffffffffffffffffffffffffffffffffffffff1673ffffffffffffffffffffffffffffffffffffffff16ff5b600060036000848152602001908152602001600020600083815260200190815260200160002054905092915050565b6000610656610a87565b151561066157600080fd5b3073ffffffffffffffffffffffffffffffffffffffff1631905090565b610686610a87565b151561069157600080fd5b8060028190555050565b6106a3610a87565b15156106ae57600080fd5b600073ffffffffffffffffffffffffffffffffffffffff166000809054906101000a900473ffffffffffffffffffffffffffffffffffffffff1673ffffffffffffffffffffffffffffffffffffffff167f8be0079c531659141344cd1fd0a4f28419497f9722a3daafe3b4186f6b6457e060405160405180910390a360008060006101000a81548173ffffffffffffffffffffffffffffffffffffffff021916908373ffffffffffffffffffffffffffffffffffffffff160217905550565b6000610777610a87565b151561078257600080fd5b600254905090565b600254341015151561082a576040517f08c379a00000000000000000000000000000000000000000000000000000000081526004018080602001828103825260368152602001807f496e73756666696369656e74207061796d656e742e20204d7573742073656e6481526020017f206d6f7265207468616e206d696e5061796d656e742e0000000000000000000081525060400191505060405180910390fd5b600060046000858152602001908152602001600020600084815260200190815260200160002060009054906101000a900473ffffffffffffffffffffffffffffffffffffffff1690503373ffffffffffffffffffffffffffffffffffffffff168173ffffffffffffffffffffffffffffffffffffffff1614806108d95750600073ffffffffffffffffffffffffffffffffffffffff168173ffffffffffffffffffffffffffffffffffffffff16145b156109ea573360046000868152602001908152602001600020600085815260200190815260200160002060006101000a81548173ffffffffffffffffffffffffffffffffffffffff021916908373ffffffffffffffffffffffffffffffffffffffff16021790555081600360008681526020019081526020016000206000858152602001908152602001600020819055507fc9bbb9d40eb6b265e9e7f7c2c367f761494e11148c80a704ed4a44184fe4313a84848433604051808581526020018481526020018381526020018273ffffffffffffffffffffffffffffffffffffffff1673ffffffffffffffffffffffffffffffffffffffff16815260200194505050505060405180910390a1610a58565b6040517f08c379a00000000000000000000000000000000000000000000000000000000081526004018080602001828103825260128152602001807f4e6f74206f776e6572206f6620646174612e000000000000000000000000000081525060200191505060405180910390fd5b50505050565b60008060009054906101000a900473ffffffffffffffffffffffffffffffffffffffff16905090565b60008060009054906101000a900473ffffffffffffffffffffffffffffffffffffffff1673ffffffffffffffffffffffffffffffffffffffff163373ffffffffffffffffffffffffffffffffffffffff1614905090565b7f5f74095c3cf9cd2b4407992767113d77fc65cb2423a83ecc71977f3ace6b34f433348484604051808573ffffffffffffffffffffffffffffffffffffffff1673ffffffffffffffffffffffffffffffffffffffff16815260200184815260200183815260200182815260200194505050505060405180910390a15050565b6103e8600281905550565b610b70610a87565b1515610b7b57600080fd5b610b8481610b87565b50565b600073ffffffffffffffffffffffffffffffffffffffff168173ffffffffffffffffffffffffffffffffffffffff1614151515610bc357600080fd5b8073ffffffffffffffffffffffffffffffffffffffff166000809054906101000a900473ffffffffffffffffffffffffffffffffffffffff1673ffffffffffffffffffffffffffffffffffffffff167f8be0079c531659141344cd1fd0a4f28419497f9722a3daafe3b4186f6b6457e060405160405180910390a3806000806101000a81548173ffffffffffffffffffffffffffffffffffffffff021916908373ffffffffffffffffffffffffffffffffffffffff1602179055505056fea165627a7a72305820f3598c2bf758d4d68bd5a3320be9b4ad153de6b4d8266b8c0a147ad1afcb21a30029",
  "source": "pragma solidity >=0.4.21 <0.6.0;\n\nimport \"openzeppelin-solidity/contracts/ownership/Ownable.sol\";\n\ncontract SignedDataVersion01 is Ownable {\n\n    address payable owner_address;\n\tuint256 private minPayment;\n\n\tmapping(uint256 => mapping(uint256 => bytes32)) dData;\n\tmapping(uint256 => mapping(uint256 => address)) dOowner;\n\tevent DataChange(uint256 App, uint256 Name, bytes32 Value, address By);\n\n\tevent ReceivedFunds(address sender, uint256 value, uint256 application, uint256 payFor);\n\tevent Withdrawn(address to, uint256 amount);\n\n\tconstructor() public {\n        owner_address = msg.sender;\n\t\tminPayment = 1000;\n\t}\n\n\tmodifier needMinPayment {\n\t\trequire(msg.value >= minPayment, \"Insufficient payment.  Must send more than minPayment.\");\n\t\t_;\n\t}\n\n\tfunction init() public {\n\t\tminPayment = 1000;\n\t}\n\n\tfunction setMinPayment( uint256 _minPayment ) public onlyOwner {\n\t\tminPayment = _minPayment;\n\t}\n\n\tfunction getMinPayment() public onlyOwner view returns ( uint256 ) {\n\t\treturn ( minPayment );\n\t}\n\n\t// ----------------------------------------------------------------------------------------------------------------------\n\n\t/**\n\t * @dev TODO if the data is empty, or if the msg.sender is the original createor of the data:\n\t *      then : save the msg.sender into dOwner, save the data into dData\n     *             create a DataChange event.\n     *      else : revert an error.\n\t */\n\tfunction setData ( uint256 _app, uint256 _name, bytes32 _data ) public needMinPayment payable {\n\t\t// xyzzy-start - code for students to implement\n\t\taddress tmp = dOowner[_app][_name];\n\t\tif ( tmp == msg.sender || tmp == address(0) ) {\n\t\t\tdOowner[_app][_name] = msg.sender;\n\t\t\tdData[_app][_name] = _data;\n\t\t\temit DataChange(_app, _name, _data, msg.sender);\n\t\t} else {\n\t\t\trevert(\"Not owner of data.\");\n\t\t}\n\t\t// xyzzy-end\n\t}\n\n\t/**\n\t * @dev TODO return the data by looking up _app and _name in dData.\n\t */\n\tfunction getData ( uint256 _app, uint256 _name ) public view returns ( bytes32 ) {\n\t\t// xyzzy-start - code for students to implement\n\t\treturn ( dData[_app][_name] );\n\t\t// xyzzy-end\n\t}\n\n\t// ----------------------------------------------------------------------------------------------------------------------\n\n\t/**\n\t * @dev payable fallback\n\t */\n\tfunction () external payable {\n\t\temit ReceivedFunds(msg.sender, msg.value, 0, 1);\n\t}\n\n\t/**\n\t * @dev genReceiveFunds - generate a receive funds event.\n\t */\n\tfunction genReceivedFunds ( uint256 application, uint256 payFor ) public payable {\n\t\temit ReceivedFunds(msg.sender, msg.value, application, payFor);\n\t}\n\n\t/**\n\t * @dev Withdraw contract value amount.\n\t */\n\tfunction withdraw( uint256 amount ) public onlyOwner returns(bool) {\n\t\taddress(owner_address).transfer(amount);\n\t\t// owner_address.send(amount);\n\t\temit Withdrawn(owner_address, amount);\n\t\treturn true;\n\t}\n\n\t/**\n\t * @dev How much do I got?\n\t */\n\tfunction getBalanceContract() public view onlyOwner returns(uint256){\n\t\treturn address(this).balance;\n\t}\n\n\t/**\n\t * @dev For futute to end the contract, take the value.\n\t */\n\tfunction kill() public onlyOwner {\n\t\temit Withdrawn(owner_address, address(this).balance);\n\t\tselfdestruct(owner_address);\n\t}\n}\n",
  "sourcePath": "/Users/corwin/go/src/github.com/Univ-Wyo-Education/S19-4010/a/07/eth/contracts/SignedDataVersion01.sol",
  "compiler": {
    "name": "solc",
    "version": "0.5.0+commit.1d4f565a.Emscripten.clang"
  },
  "schemaVersion": "3.0.5",
  "updatedAt": "2019-04-03T03:01:03.654Z",
  "devdoc": {
    "methods": {
      "genReceivedFunds(uint256,uint256)": {
        "details": "genReceiveFunds - generate a receive funds event."
      },
      "getBalanceContract()": {
        "details": "How much do I got?"
      },
      "getData(uint256,uint256)": {
        "details": "TODO return the data by looking up _app and _name in dData."
      },
      "isOwner()": {
        "return": "true if `msg.sender` is the owner of the contract."
      },
      "kill()": {
        "details": "For futute to end the contract, take the value."
      },
      "owner()": {
        "return": "the address of the owner."
      },
      "renounceOwnership()": {
        "details": "Allows the current owner to relinquish control of the contract. It will not be possible to call the functions with the `onlyOwner` modifier anymore."
      },
      "setData(uint256,uint256,bytes32)": {
        "details": "TODO if the data is empty, or if the msg.sender is the original createor of the data:     then : save the msg.sender into dOwner, save the data into dData            create a DataChange event.     else : revert an error."
      },
      "transferOwnership(address)": {
        "details": "Allows the current owner to transfer control of the contract to a newOwner.",
        "params": {
          "newOwner": "The address to transfer ownership to."
        }
      },
      "withdraw(uint256)": {
        "details": "Withdraw contract value amount."
      }
    }
  },
  "userdoc": {
    "methods": {
      "renounceOwnership()": {
        "notice": "Renouncing ownership will leave the contract without an owner, thereby removing any functionality that is only available to the owner."
      }
    }
  }
}