{
  "contractName": "SignedData",
  "abi": [
    {
      "constant": false,
      "inputs": [],
      "name": "renounceOwnership",
      "outputs": [],
      "payable": false,
      "stateMutability": "nonpayable",
      "type": "function",
      "signature": "0x715018a6"
    },
    {
      "constant": true,
      "inputs": [],
      "name": "owner",
      "outputs": [
        {
          "name": "",
          "type": "address"
        }
      ],
      "payable": false,
      "stateMutability": "view",
      "type": "function",
      "signature": "0x8da5cb5b"
    },
    {
      "constant": true,
      "inputs": [],
      "name": "isOwner",
      "outputs": [
        {
          "name": "",
          "type": "bool"
        }
      ],
      "payable": false,
      "stateMutability": "view",
      "type": "function",
      "signature": "0x8f32d59b"
    },
    {
      "constant": false,
      "inputs": [
        {
          "name": "newOwner",
          "type": "address"
        }
      ],
      "name": "transferOwnership",
      "outputs": [],
      "payable": false,
      "stateMutability": "nonpayable",
      "type": "function",
      "signature": "0xf2fde38b"
    },
    {
      "inputs": [
        {
          "name": "_version",
          "type": "uint256"
        },
        {
          "name": "_implementation",
          "type": "address"
        }
      ],
      "payable": false,
      "stateMutability": "nonpayable",
      "type": "constructor",
      "signature": "constructor"
    },
    {
      "payable": true,
      "stateMutability": "payable",
      "type": "fallback"
    },
    {
      "anonymous": false,
      "inputs": [
        {
          "indexed": false,
          "name": "proxyToContractVersion",
          "type": "uint256"
        },
        {
          "indexed": false,
          "name": "proxyToAddress",
          "type": "address"
        }
      ],
      "name": "ContractUpgradeEvent",
      "type": "event",
      "signature": "0x88ee542495575e7963fd4f7e164feb7d209e16d8f5f9900cc094cacc84123e2e"
    },
    {
      "anonymous": false,
      "inputs": [
        {
          "indexed": true,
          "name": "previousOwner",
          "type": "address"
        },
        {
          "indexed": true,
          "name": "newOwner",
          "type": "address"
        }
      ],
      "name": "OwnershipTransferred",
      "type": "event",
      "signature": "0x8be0079c531659141344cd1fd0a4f28419497f9722a3daafe3b4186f6b6457e0"
    },
    {
      "constant": true,
      "inputs": [],
      "name": "getCurrentContractVersion",
      "outputs": [
        {
          "name": "",
          "type": "uint256"
        }
      ],
      "payable": false,
      "stateMutability": "view",
      "type": "function",
      "signature": "0x43ed6d77"
    },
    {
      "constant": true,
      "inputs": [],
      "name": "getToAddress",
      "outputs": [
        {
          "name": "",
          "type": "address"
        }
      ],
      "payable": false,
      "stateMutability": "view",
      "type": "function",
      "signature": "0xe411842f"
    },
    {
      "constant": true,
      "inputs": [],
      "name": "implementation",
      "outputs": [
        {
          "name": "_implementation",
          "type": "address"
        }
      ],
      "payable": false,
      "stateMutability": "view",
      "type": "function",
      "signature": "0x5c60da1b"
    },
    {
      "constant": false,
      "inputs": [
        {
          "name": "_newVersion",
          "type": "uint256"
        },
        {
          "name": "_implementation",
          "type": "address"
        }
      ],
      "name": "upgradeTo",
      "outputs": [],
      "payable": false,
      "stateMutability": "nonpayable",
      "type": "function",
      "signature": "0x3ad06d16"
    }
  ],
  "bytecode": "0x608060405234801561001057600080fd5b50604051604080610bbd8339810180604052604081101561003057600080fd5b810190808051906020019092919080519060200190929190505050336000806101000a81548173ffffffffffffffffffffffffffffffffffffffff021916908373ffffffffffffffffffffffffffffffffffffffff1602179055506000809054906101000a900473ffffffffffffffffffffffffffffffffffffffff1673ffffffffffffffffffffffffffffffffffffffff16600073ffffffffffffffffffffffffffffffffffffffff167f8be0079c531659141344cd1fd0a4f28419497f9722a3daafe3b4186f6b6457e060405160405180910390a3600073ffffffffffffffffffffffffffffffffffffffff168173ffffffffffffffffffffffffffffffffffffffff16141515156101d2576040517f08c379a00000000000000000000000000000000000000000000000000000000081526004018080602001828103825260258152602001807f496d706c656d656e746174696f6e20616464726573732063616e27742062652081526020017f7a65726f2e00000000000000000000000000000000000000000000000000000081525060400191505060405180910390fd5b816001819055506101f1816101f8640100000000026401000000009004565b505061025f565b600060405180807f657468657265756d2e706c756d62696e672e5369676e6564446174612e70726f81526020017f78792e696d706c656d656e746174696f6e0000000000000000000000000000008152506031019050604051809103902090508181555050565b61094f8061026e6000396000f3fe60806040526004361061008e576000357c0100000000000000000000000000000000000000000000000000000000900463ffffffff1680633ad06d16146100c157806343ed6d771461011c5780635c60da1b14610147578063715018a61461019e5780638da5cb5b146101b55780638f32d59b1461020c578063e411842f1461023b578063f2fde38b14610292575b60006100986102e3565b905060405136600082376000803683855af43d806000843e81600081146100bd578184f35b8184fd5b3480156100cd57600080fd5b5061011a600480360360408110156100e457600080fd5b8101908080359060200190929190803573ffffffffffffffffffffffffffffffffffffffff16906020019092919050505061034c565b005b34801561012857600080fd5b5061013161061f565b6040518082815260200191505060405180910390f35b34801561015357600080fd5b5061015c6102e3565b604051808273ffffffffffffffffffffffffffffffffffffffff1673ffffffffffffffffffffffffffffffffffffffff16815260200191505060405180910390f35b3480156101aa57600080fd5b506101b3610629565b005b3480156101c157600080fd5b506101ca6106fb565b604051808273ffffffffffffffffffffffffffffffffffffffff1673ffffffffffffffffffffffffffffffffffffffff16815260200191505060405180910390f35b34801561021857600080fd5b50610221610724565b604051808215151515815260200191505060405180910390f35b34801561024757600080fd5b5061025061077b565b604051808273ffffffffffffffffffffffffffffffffffffffff1673ffffffffffffffffffffffffffffffffffffffff16815260200191505060405180910390f35b34801561029e57600080fd5b506102e1600480360360208110156102b557600080fd5b81019080803573ffffffffffffffffffffffffffffffffffffffff1690602001909291905050506107a3565b005b60008060405180807f657468657265756d2e706c756d62696e672e5369676e6564446174612e70726f81526020017f78792e696d706c656d656e746174696f6e000000000000000000000000000000815250603101905060405180910390209050805491505090565b610354610724565b151561035f57600080fd5b60006103696102e3565b9050600073ffffffffffffffffffffffffffffffffffffffff168273ffffffffffffffffffffffffffffffffffffffff1614151515610436576040517f08c379a00000000000000000000000000000000000000000000000000000000081526004018080602001828103825260258152602001807f496d706c656d656e746174696f6e20616464726573732063616e27742062652081526020017f7a65726f2e00000000000000000000000000000000000000000000000000000081525060400191505060405180910390fd5b8073ffffffffffffffffffffffffffffffffffffffff168273ffffffffffffffffffffffffffffffffffffffff1614151515610500576040517f08c379a000000000000000000000000000000000000000000000000000000000815260040180806020018281038252603e8152602001807f496d706c656d656e746174696f6e2061646472657373206d757374206265206481526020017f6966666572656e742066726f6d207468652063757272656e74206f6e652e000081525060400191505060405180910390fd5b6001548311151561059f576040517f08c379a00000000000000000000000000000000000000000000000000000000081526004018080602001828103825260308152602001807f536f6674776172652076657273696f6e206d75737420696e637265617365207481526020017f6f20626520616e20757067726164652e0000000000000000000000000000000081525060400191505060405180910390fd5b826001819055506105af826107c2565b7f88ee542495575e7963fd4f7e164feb7d209e16d8f5f9900cc094cacc84123e2e8383604051808381526020018273ffffffffffffffffffffffffffffffffffffffff1673ffffffffffffffffffffffffffffffffffffffff1681526020019250505060405180910390a1505050565b6000600154905090565b610631610724565b151561063c57600080fd5b600073ffffffffffffffffffffffffffffffffffffffff166000809054906101000a900473ffffffffffffffffffffffffffffffffffffffff1673ffffffffffffffffffffffffffffffffffffffff167f8be0079c531659141344cd1fd0a4f28419497f9722a3daafe3b4186f6b6457e060405160405180910390a360008060006101000a81548173ffffffffffffffffffffffffffffffffffffffff021916908373ffffffffffffffffffffffffffffffffffffffff160217905550565b60008060009054906101000a900473ffffffffffffffffffffffffffffffffffffffff16905090565b60008060009054906101000a900473ffffffffffffffffffffffffffffffffffffffff1673ffffffffffffffffffffffffffffffffffffffff163373ffffffffffffffffffffffffffffffffffffffff1614905090565b6000610785610724565b151561079057600080fd5b600061079a6102e3565b90508091505090565b6107ab610724565b15156107b657600080fd5b6107bf81610829565b50565b600060405180807f657468657265756d2e706c756d62696e672e5369676e6564446174612e70726f81526020017f78792e696d706c656d656e746174696f6e0000000000000000000000000000008152506031019050604051809103902090508181555050565b600073ffffffffffffffffffffffffffffffffffffffff168173ffffffffffffffffffffffffffffffffffffffff161415151561086557600080fd5b8073ffffffffffffffffffffffffffffffffffffffff166000809054906101000a900473ffffffffffffffffffffffffffffffffffffffff1673ffffffffffffffffffffffffffffffffffffffff167f8be0079c531659141344cd1fd0a4f28419497f9722a3daafe3b4186f6b6457e060405160405180910390a3806000806101000a81548173ffffffffffffffffffffffffffffffffffffffff021916908373ffffffffffffffffffffffffffffffffffffffff1602179055505056fea165627a7a723058202317ae29352689f0c66b4f02caf9f49ba82368aefe2b8653fc0216d91a1cc9d30029",
  "source": "pragma solidity >=0.4.21 <0.6.0;\n\nimport \"openzeppelin-solidity/contracts/ownership/Ownable.sol\";\n\n// Proxy contract.  Based on Zeppelin OS.\n\n// version 9001003004 === 9 001 003 004 - is semantic version\n// v1.3.4 - with 3 digit encode and a leading 9.  This has the\n// advantage of being numerically comparable for versions.\n\ncontract SignedData is Ownable {\n\n\t// Storage position of the address of the current implementation\n\tbytes32 private constant implementationPosition = keccak256(\"ethereum.plumbing.SignedData.proxy.implementation\");\n\tuint256 private proxyToContractVersion;\n\n\tevent ContractUpgradeEvent(uint256 proxyToContractVersion, address proxyToAddress);\n\n\tconstructor(uint256 _version, address _implementation) public {\n\t\trequire(_implementation != address(0), \"Implementation address can't be zero.\");\n\t\tproxyToContractVersion = _version;\n\t\tsetImplementation(_implementation);\n\t}\n\n\t/**\n\t * @dev getCurrentContractVersion returns the current version of the contarct.\n\t */\n\tfunction getCurrentContractVersion() public view returns ( uint256 ) {\n\t\treturn ( proxyToContractVersion );\n\t}\n\n\t/**\n\t * @dev getToAddress returns the address of the current proxied TO contract.\n\t */\n\tfunction getToAddress() public onlyOwner view returns ( address ) {\n\t\taddress _impl = implementation();\n\t\treturn ( _impl );\n\t}\n\n\t/**\n\t * @dev Gets the address of the current implementation.\n\t * @return address of the current implementation.\n\t*/\n\tfunction implementation() public view returns (address _implementation) {\n\t\tbytes32 position = implementationPosition;\n\t\t/* solium-disable-next-line */\n\t\tassembly {\n\t\t\t_implementation := sload(position)\n\t\t}\n\t}\n\n\t/**\n\t * @dev Sets the address of the current implementation.\n\t * @param _implementation address representing the new implementation to be set.\n\t */\n\tfunction setImplementation(address _implementation) internal {\n\t\tbytes32 position = implementationPosition;\n\t\t/* solium-disable-next-line */\n\t\tassembly {\n\t\t\tsstore(position, _implementation)\n\t\t}\n\t}\n\n\t/**\n\t * @dev Delegate call to the current implementation contract.\n\t */\n\tfunction() external payable {\n\t\taddress _impl = implementation();\n\t\t/* solium-disable-next-line */\n\t\tassembly {\n\t\t\tlet ptr := mload(0x40)\n\t\t\tcalldatacopy(ptr, 0, calldatasize)\n\t\t\tlet result := delegatecall(gas, _impl, ptr, calldatasize, 0, 0)\n\t\t\tlet size := returndatasize\n\t\t\treturndatacopy(ptr, 0, size)\n\n\t\t\tswitch result\n\t\t\tcase 0 { revert(ptr, size) }\n\t\t\tdefault { return(ptr, size) }\n\t\t}\n\t}\n\n\t/**\n\t * @dev Upgrade current implementation.\n\t * @param _implementation Address of the new implementation contract.\n\t */\n\tfunction upgradeTo(uint256 _newVersion, address _implementation) public onlyOwner {\n\t\taddress currentImplementation = implementation();\n\t\trequire(_implementation != address(0), \"Implementation address can't be zero.\");\n\t\trequire(_implementation != currentImplementation, \"Implementation address must be different from the current one.\");\n\t\trequire(_newVersion > proxyToContractVersion, \"Software version must increase to be an upgrade.\");\n\t\tproxyToContractVersion = _newVersion;\n\t\tsetImplementation(_implementation);\n\t\temit ContractUpgradeEvent(_newVersion,_implementation);\n\t}\n}\n",
  "sourcePath": "/Users/corwin/go/src/github.com/Univ-Wyo-Education/S19-4010/a/07/eth/contracts/SignedData.sol",
  "compiler": {
    "name": "solc",
    "version": "0.5.0+commit.1d4f565a.Emscripten.clang"
  },
  "schemaVersion": "3.0.5",
  "updatedAt": "2019-04-03T03:01:03.649Z",
  "devdoc": {
    "methods": {
      "getCurrentContractVersion()": {
        "details": "getCurrentContractVersion returns the current version of the contarct."
      },
      "getToAddress()": {
        "details": "getToAddress returns the address of the current proxied TO contract."
      },
      "implementation()": {
        "details": "Gets the address of the current implementation.",
        "return": "address of the current implementation."
      },
      "isOwner()": {
        "return": "true if `msg.sender` is the owner of the contract."
      },
      "owner()": {
        "return": "the address of the owner."
      },
      "renounceOwnership()": {
        "details": "Allows the current owner to relinquish control of the contract. It will not be possible to call the functions with the `onlyOwner` modifier anymore."
      },
      "transferOwnership(address)": {
        "details": "Allows the current owner to transfer control of the contract to a newOwner.",
        "params": {
          "newOwner": "The address to transfer ownership to."
        }
      },
      "upgradeTo(uint256,address)": {
        "details": "Upgrade current implementation.",
        "params": {
          "_implementation": "Address of the new implementation contract."
        }
      }
    }
  },
  "userdoc": {
    "methods": {
      "renounceOwnership()": {
        "notice": "Renouncing ownership will leave the contract without an owner, thereby removing any functionality that is only available to the owner."
      }
    }
  }
}